:020000040800F2
:100000000025002001010008951000081F100008BD
:10001000911000089D040008DF2200080000000085
:10002000000000000000000000000000411900086E
:10003000B90700080000000029180008551A000838
:100040001B0100081B0100081B0100081B01000820
:100050001B0100081B0100081B0100081B01000810
:100060001B0100081B0100081B0100081B01000800
:100070001B0100081B0100081B0100081B010008F0
:100080001B0100081B0100081B0100081B010008E0
:100090001B0100081B0100081B0100081B010008D0
:1000A0001B0100081B0100081B0100081B010008C0
:1000B0001B0100081B0100081B0100081B010008B0
:1000C0001B0100081B0100081B0100081B010008A0
:1000D0001B0100081B010008011D00081B0100088E
:1000E0001B0100081B0100081B010008DFF80CD0F1
:1000F00000F078F900480047C123000800250020DF
:100100000648804706480047FEE7FEE7FEE7FEE7B1
:10011000FEE7FEE7FEE7FEE7FEE7FEE7D51A00088A
:10012000ED0000082DE9FE4F81EA030404F00044CD
:1001300021F0004100944FF0000B23F0004350EAFF
:1001400001045ED052EA03045BD0C3F30A54C1F346
:100150000A552C44A4F2F3340194A0FB0254C1F3D9
:10016000130141F48011C3F3130343F4801301FB23
:10017000024400FB034E840A970A44EA815447EA8A
:100180008357A4FB076802958D0A05FB07854FEA94
:10019000932C04FB0C542705029D4FEA065847EAAE
:1001A0001637B5EB08056EEB070C870E920E47EA83
:1001B000811742EA8312A7FB0201B6EB0B0164EB45
:1001C00000042B0D43EA0C335E1844EB1C50DA4656
:1001D0005146E7FB0201C5F313044FEA0B3343EA30
:1001E00014534FEA0432019C43EA0603A4F10C04C1
:1001F0000294009CCDE900B400F0A6F803B0BDE87D
:10020000F08F00200146F9E70EB5C10F80EAE070DB
:100210000844CA07002140F233438DE80E000A4625
:100220000B4600F091F803B000BD00F0004220F052
:100230000040C10DC0F3160040F400007F2901DA30
:1002400000207047962903DCC1F19601C84001E007
:1002500096398840002AF4D04042704720F0004090
:10026000C10DC0F3160040F400007F2901DA002020
:100270007047962903DCC1F19601C8407047963952
:100280008840704701F0004330B421F0004150EA4B
:10029000010206D00A0DA2F56072C1F31301002A13
:1002A00002DC30BC00207047440F44EAC104C100A6
:1002B000E01830BC00EBC250AFF300800029A8BFAB
:1002C0007047401C490008BF20F00100704710B47F
:1002D000B0FA80FC00FA0CF050EA010404BF10BC34
:1002E000704749B1CCF1200421FA04F411FA0CF161
:1002F00018BF012121430843A3EB0C01CB1D4FEA9A
:1003000000614FEA102042BF002010BC704700EB94
:10031000C35010440029A4BF10BC7047401C4900C2
:1003200008BF20F0010010BC704710B5141E73F117
:10033000000408DA401C41F1000192185B411A43A5
:1003400001D120F0010010BD2DE9F04D92469B46F1
:1003500011B1B1FA81F202E0B0FA80F22032904697
:1003600000F052F804460F4640EA0A0041EA0B0149
:1003700053465A46084313D0114653EA010019D098
:10038000C8F14002504600F04EF805460E46504671
:100390005946424600F038F8084305D0012004E0F1
:1003A00020463946BDE8F08D0020054346EAE07658
:1003B0002C4337430A986305E40AA0EB08000022A7
:1003C000FD0A44EA47540A3002D500200146E9E715
:1003D000010510196941DDE9084500196941BDE8C9
:1003E000F04DA2E7064C074D06E0E06840F001033F
:1003F00094E8070098471034AC42F6D3FFF77AFE32
:10040000383C0008583C0008202A04DB203A00FA57
:1004100002F1002070479140C2F1200320FA03F35B
:10042000194390407047202A04DB203A21FA02F059
:100430000021704721FA02F3D040C2F1200291401E
:1004400008431946704770B58C1810F8015B15F019
:10045000070301D110F8013B2A1106D110F8012B36
:1004600003E010F8016B01F8016B5B1EF9D12B075B
:1004700005D40023521E0DD401F8013BFAE710F811
:10048000013BCB1A921C03E013F8015B01F8015BFE
:10049000521EF9D5A142D8D3002070BD00BFFEE79F
:1004A0000748006840F08070054908600020054951
:1004B00048600846006840F001000860704700008E
:1004C000FCED00E0001000E00148406870470000CB
:1004D000001000E031B50024FFF7E2FF104800688B
:1004E0001049B0FBF1F0009900FB01F500BFFFF7E8
:1004F000EBFF034611E0FFF7E7FF02469A420CD0FC
:100500009A4202D9D01A044403E0C3F1FF301044E8
:1005100004441346AC4200D300E0ECE700BF38BD12
:100520000000002040420F0008B50121082001F022
:100530008DF94020ADF8000010208DF80300032055
:100540008DF802006946024800F088FC08BD0000F2
:10055000000C01402DE9FC5F064600F057F800242E
:1005600004E0305D00F0FAF8601CC4B2082CF8DB3F
:10057000442000F0F3F800F049F8002404E0305D76
:1005800000F0ECF8601CC4B2082CF8DBBE2000F0D0
:10059000E5F800F0ADF8834600F0AAF881464FEA8E
:1005A000092005B245EA0B05002D0EDAE843401C90
:1005B000FFF72AFE074600220C4BFFF7B3FDCDE9FB
:1005C0000001FFF75FFE82460CE02846FFF71CFEA5
:1005D00007460022054BFFF7A5FDCDE90001FFF717
:1005E00051FE82465046BDE8FC9F00000000B03F2F
:1005F00010B5FFF799FF4021034800F00EFD00F011
:1006000097F800F02DF810BD000C014010B500F077
:100610008FF800F025F8552000F0A0F810BD00007C
:1006200008B54020ADF8000048208DF80300694669
:10063000014800F013FC08BD000C014008B5402043
:10064000ADF8000010208DF8030003208DF80200A3
:100650006946024800F002FC08BD0000000C0140A1
:1006600010B50024FFF7DCFF04E0601CC4B20120D9
:10067000FFF730FF40210F4800F0C4FC08B1642CA4
:10068000F3DB642C01DB012010BD002404E0601CBE
:10069000C4B20120FFF71EFF4021064800F0B2FC63
:1006A00008B9F02CF3DBF02C01DB0120ECE7002093
:1006B000EAE70000000C014010B5FFF7BFFF402142
:1006C0000A4800F0A8FC0A20FFF704FFFFF7A8FF84
:1006D0004021064800F096FC012801D1012400E0E9
:1006E00000242D20FFF7F6FE204610BD000C01402F
:1006F00070B50026002408E0FFF7DEFF054605FA86
:1007000004F03043C6B2601CC4B2082CF4DB30469F
:1007100070BD70B50546332000F020F8002404E0D9
:10072000FFF7E6FF2855601CC4B2082CF8DB70BD4B
:1007300010B5FFF783FF4021074800F06CFC40F242
:10074000EE20FFF7C7FE4021034800F066FC0F20B3
:10075000FFF7C0FE10BD0000000C014070B504465C
:10076000FFF76CFF002522E004F00106641076B16B
:100770004021104800F04FFC0820FFF7ABFE40215D
:100780000C4800F04AFC3A20FFF7A4FE0DE040219F
:10079000084800F040FC4620FFF79CFE4021054839
:1007A00000F03BFC0220FFF795FE681CC5B2082D47
:1007B000DADB70BD000C01407047000008B5012174
:1007C000082001F043F84FF4C070ADF8000010208D
:1007D0008DF8030003208DF8020069460A4800F0F6
:1007E0003DFB0121042001F031F84020ADF800006C
:1007F00018208DF8030003208DF802006946034895
:1008000000F02CFB08BD0000000C01400008014076
:1008100010B5FFF7D3FF01F099F910BD10B5802195
:10082000044800F0FAFB4FF48071024800F0F3FB3B
:1008300010BD0000000C014010B58021044800F0FC
:10084000EAFB4FF48071024800F0E5FB10BD0000A8
:10085000000C014008B54FF48051FE4800F002FC46
:1008600001287DD1FC48006800284FD1FFF7D6FF52
:100870000320FA4908600120F749086000F060FC95
:100880000C23F7A20021022000F054FF0C23F8A251
:100890001021022000F04EFF0C23F7A2202102209D
:1008A00000F048FF0C23F6A23021022000F042FFA6
:1008B0000C23F6A20021642000F03CFF0122114627
:1008C0006C2000F0A9FC0C23F1A23021542000F090
:1008D00031FF0C2001230090E048102102685420D1
:1008E00000F0EEFE0C23EBA22021542000F022FFAA
:1008F000DA480068C0EBC00000EB80004FF6FF72E2
:1009000002EA4001E54801F0A6F93BE0D248006860
:10091000012837D1FFF790FF0020CF49086000F091
:100920000FFC0C23DEA21021542000F003FF0C2347
:10093000CBA20021022000F0FDFE0C23CCA210214E
:10094000022000F0F7FE0C23CBA22021022000F0B1
:10095000F1FE0C23CAA23021022000F0EBFE00E0E1
:1009600012E00C23C9A20021642000F0E3FE012262
:1009700011466C2000F050FC0C23C5A230215420FD
:1009800000F0D8FE00F074FD4FF40061B14800F0B3
:1009900069FB012859D1B0490860FFF73FFF00F01B
:1009A000CFFB0C23AEA20021022000F0C3FE0C23DB
:1009B000AFA21021022000F0BDFE0C23AEA2202128
:1009C000022000F0B7FE0C23ADA23021022000F07F
:1009D000B1FE0C23ADA20021642000F0ABFE012289
:1009E00011466C2000F018FC0C23A9A230215420E1
:1009F00000F0A0FE00F03CFD98480068401C9749BC
:100A0000086008460068032801DD0120086093485B
:100A10000068C0EBC00000EB80004FF6FF7202EAF6
:100A200040019E4801F017F90C239AA2202154207E
:100A300000F080FE0C2001230090884810210268FD
:100A4000542000F03DFE00F013FD4FF4806181481A
:100A500000F008FB01287DD17F49086000F070FBA1
:100A60000C237FA20021022000F064FE0C2380A250
:100A70001021022000F05EFE0C237FA22021022024
:100A800000F058FE0C237EA23021022000F052FE1E
:100A90000C237EA20021642000F04CFE01221146AE
:100AA0006C2000F0B9FB0C2379A23021542000F017
:100AB00041FE00F0DDFC00BF00F05CF94FF4007176
:100AC000644800F0CFFA90B94FF48061614800F0BB
:100AD000C9FA60B94FF400615E4800F0C3FA30B95A
:100AE0004FF480515B4800F0BDFA0028E4D000F0DC
:100AF00027FB0C235AA20021022000F01BFE0C232E
:100B00005BA21021022000F015FE0C235AA2202126
:100B1000022000F00FFE0C2359A23021022000F029
:100B200009FE0C2359A20021642000F003FE0122DB
:100B300011466C2000F070FB0C2355A2302154208C
:100B400000F0F8FD0C2353A22021542000F0F2FD08
:100B5000424800E023E00068401C40490860084625
:100B60000068032801DD012008600C2001230090AB
:100B70003A4810210268542000F0A2FD00F078FCF1
:100B8000FFF74CFE35480068C0EBC00000EB80006A
:100B90004FF6FF7202EA4001404801F05CF84FF462
:100BA00000712C4800F05EFA012852D12A490860F1
:100BB00000F0C6FA00BF102300220A21082000F02E
:100BC000FBFC102301220A211A2000F0F5FC10235F
:100BD00002220A212C2000F0EFFC102303220A211C
:100BE0003E2000F0E9FC102304220A21502000F0EE
:100BF000E3FC102305220A21622000F0DDFC102313
:100C000006222821262000F0D7FC102307222821C5
:100C1000382000F0D1FC1023082228214A2000F0BF
:100C2000CBFC00F025FC4FF400710A4800F01AFAE2
:100C3000C0BB4FF48061074800F014FA90BB4FF43A
:100C40000061044800F00EFA60BB4FF48051014887
:100C500029E089E000080140300800202808002031
:100C600054656D70657261747572653A00000000BC
:100C700046616E3A000000004D6F64653A00000066
:100C8000445331384232303A000000004300000043
:100C90004F6B000048756D616E000000000400405D
:100CA0004F46460003E000F0DDF9002883D000F055
:100CB00047FA0C23AFF258020021022000F03AFD5F
:100CC0000C23AFF254021021022000F033FD0C235C
:100CD000AFF25C022021022000F02CFD0C23AFF2C9
:100CE00060023021022000F025FD0C23AFF26402E7
:100CF0000021642000F01EFD012211466C2000F04E
:100D00008BFA0C23AFF278023021542000F012FD50
:100D10000C23AFF280022021542000F00BFD134879
:100D20000068401C1149086008460068032801DD7E
:100D3000012008600C20012300900C48102102685B
:100D4000542000F0BDFC00F093FBFFF767FD07485F
:100D50000068C0EBC00000EB80004FF6FF7202EAB3
:100D60004001034800F077FF08BD0000280800207C
:100D70000004004008B500F0FFFC33480068FFF7AE
:100D800054FA18380A2846D2DFE800F00506192C74
:100D90002D2E2F30313200BF01202C490860FFF783
:100DA0003DFD2A480068C0EBC00000EB80004FF614
:100DB000FF7202EA4001264800F04DFF31E00220B8
:100DC00022490860FFF72AFD20480068C0EBC000F8
:100DD00000EB80004FF6FF7202EA40011C4800F071
:100DE0003AFF1EE000BF00BF00BF00BF00BF00BF52
:100DF000032016490860FFF711FD14480068C0EB96
:100E0000C00000EB80004FF6FF7202EA400110487C
:100E100000F021FF05E000200C490860FFF70CFD01
:100E200000BF00BF0C230BA22021542000F082FC45
:100E30000C2001230090054810210268542000F086
:100E40003FFC00F015FB08BD3408002028080020F6
:100E5000000400404175746F200000002DE9F0414E
:100E6000024600250026002000230024002791F8D8
:100E700003C00CF00F0591F803C00CF0100CBCF18E
:100E8000000F03D091F802C04CEA050591F800C0AC
:100E9000BCF1000F31D0146800202BE04FF0010CA2
:100EA0000CFA00F3B1F800C00CEA03069E4220D110
:100EB00083004FF00F0C0CFA03F7BC4305FA03FC58
:100EC0004CEA040491F803C0BCF1280F06D14FF09E
:100ED000010C0CFA00FCC2F814C00AE091F803C03F
:100EE000BCF1480F05D14FF0010C0CFA00FCC2F820
:100EF00010C0401C0828D1D31460B1F800C0BCF168
:100F0000FF0F34DD546800202EE000F1080C4FF094
:100F1000010808FA0CF3B1F800C00CEA03069E427F
:100F200021D183004FF00F0C0CFA03F7BC4305FAF4
:100F300003FC4CEA040491F803C0BCF1280F05D16E
:100F400000F1080C08FA0CF8C2F8148091F803C0FC
:100F5000BCF1480F07D100F1080C4FF0010808FA66
:100F60000CF8C2F81080401C0828CED35460BDE8AD
:100F7000F0810000F0B50A4600230024002100257E
:100F800000F00046B6F1004F02D11D4EF16901E0BC
:100F90001B4E7168C0F3034583B200F44016B6F5EA
:100FA000401F08D121F07061154E766826F07066FA
:100FB000134F7E6012E000F48016B6F5801F06D154
:100FC000032606FA05F4A14341F0706106E0460DE0
:100FD000360103FA06F6B14341F0706122B1460DC5
:100FE000360103FA06F6314300F00046B6F1004F31
:100FF00002D1034EF16101E0014E7160F0BD0000CD
:10100000000001400246002093680B400BB1012014
:1010100000E000207047416170470161704700BFE8
:10102000FEE7000008B50121084600F00FFC012191
:101030000A48FFF79FFF0121042000F007FC4FF44E
:10104000F050ADF8000048208DF8030003208DF823
:10105000020069460248FFF701FF08BD00023000A8
:101060000008014070B504460D4629462046FFF7AA
:10107000C9FF58B90A2001F065F900BF294620468A
:10108000FFF7C0FF0028F9D0012070BD0020FCE769
:1010900000BFFEE7704708B54FF4A06000F046F8C7
:1010A00026208DF8000001208DF801008DF8020047
:1010B0008DF80300684600F001F808BD70B5002106
:1010C00000230F22C47804B3154C246804F4E064B0
:1010D000C4F5E064210AC1F10403CA40447804FA6B
:1010E00003F184781440214309010E4C0678A15580
:1010F000047804F01F050124AC4005786D11AD00A3
:1011000005F1E025C5F8004109E0047804F01F0569
:101110000124AC40044D0678761145F8264070BD98
:101120000CED00E000E400E080E100E00249014352
:10113000024A1160704700000000FA050CED00E063
:1011400070B500240CE0002506E00020074901EB03
:10115000C5010855681CC5B2802DF6DB601CC4B201
:10116000082CF0DB00F084F970BD0000801C00202A
:1011700070B50B46CE1701EB5676C6F3C702CE17F5
:1011800001EB5676F610A1EBC606F4B20123A3409C
:10119000DDB20E4B03EBC0039B5CDB430B4E06EB57
:1011A000C006B354094B03EBC0039B5C2B43074EB3
:1011B00006EBC006B354054B03EBC0039B5CDB435B
:1011C000024E06EBC006B35470BD0000801C002028
:1011D00010B504461CB90021A62000F0EBFA012C42
:1011E00003D10021A72000F0E5FA10BD10B5044698
:1011F0003CB90021C82000F0DDFA0021A12000F058
:10120000D9FA012C07D10021C02000F0D3FA002127
:10121000A02000F0CFFA10BD2DE9F04306460F469E
:101220009046002544463BE03A1BD1B27219D0B239
:1012300000F03EF83A1BD1B2721BD0B200F038F881
:101240003A19D1B2721BD0B200F032F83A19D1B2C9
:101250007219D0B200F02CF87A19D1B23219D0B28A
:1012600000F026F87A1BD1B23219D0B200F020F883
:101270007A1BD1B2321BD0B200F01AF87A19D1B26F
:10128000321BD0B200F014F86D1C05FB05F004FB16
:10129000040008FB1809B9F1000F01DD641E6D1E82
:1012A0006000604308FB08F18842BDDABDE8F083C6
:1012B00070B50A46CE1701EB5676C6F3C703CE17B4
:1012C00001EB5676F610A1EBC606F4B20122A2405D
:1012D000D5B2054A02EBC002D25C2A43024E06EBAD
:1012E000C006F25470BD0000801C002008B501212A
:1012F000042000F0ABFAB020ADF8000010208DF80B
:10130000030003208DF8020069465148FFF7A6FD4F
:10131000B0214F48FFF781FE0121082000F096FA26
:1013200040F20310ADF8000010208DF803000320F8
:101330008DF8020069464748FFF790FD40F203111F
:101340004448FFF76AFE01214248FFF766FE642029
:1013500000F0F8FF01213F48FFF75DFEC82000F0D4
:10136000F1FF01213B48FFF758FE0021AE2000F0BD
:1013700021FA0021084600F01DFA0021102000F09B
:1013800019FA0021402000F015FA0021812000F018
:1013900011FA0021CF2000F00DFA0021A12000F069
:1013A00009FA0021C82000F005FA0021A62000F06B
:1013B00001FA0021A82000F0FDF900213F2000F0F3
:1013C000F9F90021D32000F0F5F90021084600F0DA
:1013D000F1F90021D52000F0EDF90021802000F086
:1013E000E9F90021D92000F0E5F90021F12000F011
:1013F000E1F90021DA2000F0DDF90021122000F0EF
:10140000D9F90021DB2000F0D5F90021402000F0BF
:10141000D1F90021202000F0CDF90021022000F0B8
:10142000C9F900218D2000F0C5F90021142000F039
:10143000C1F90021A42000F0BDF90021A62000F090
:10144000B9F90021AF2000F0B5F9FFF779FE08BD2A
:1014500000080140000C014010B50246012000E0E8
:1014600050430B00A1F10104E1B2F9D110BD00001D
:1014700070B500241CE004F1B001C8B2002100F0F6
:1014800099F90021084600F095F90021102000F09C
:1014900091F9002508E0084901EBC501085D01212B
:1014A00000F088F9681CC5B2802DF4DB601CC4B262
:1014B000082CE0DB70BD0000801C00202DE9FF4FF0
:1014C00081B080460E461C4600962046E31704EB8A
:1014D0005373DB1021464FEAE47C04EB5C7C4FEA5B
:1014E000EC0CA4EBCC0CBCF1000F02D04FF0010CC3
:1014F00001E04FF0000C6344224604EBD27C4FEA3B
:101500006C0C03FB0CF303F0FF0B03982038C7B2FD
:10151000002547E00C2C07D107EB4700234901EBDE
:10152000800010F805A014E0102C05D1204800EB35
:10153000071010F805A00CE0182C07D107EBC70026
:101540001C4901EB800010F805A002E005B0BDE8E1
:10155000F08F4FF000091FE00AF0800020B1314603
:101560004046FFF7A5FE03E031464046FFF700FE88
:101570004FEA4A604FEA106A701CC6B20098301AEF
:10158000A04205D1009E08F1010000F0FF0806E02E
:1015900009F1010000F0FF09B9F1080FDCDB00BF21
:1015A000681CC5B25D45B5DB00BFCFE778240008F5
:1015B000EC280008DC2E00082DE9FF4F074688467E
:1015C00091461C464FF0000B0297CDF80480204650
:1015D000E11704EB5171C1F3C701009160E009FB11
:1015E00004F0C11700EB51710BEBE101CEB20BF12E
:1015F000010000F0FF0B002550E0102C05D12C4815
:1016000000EB0610405D03901BE0182C07D106EBA1
:10161000C600284901EBC000405D039011E0202C7A
:1016200005D1254800EBC610405D039009E0402C31
:1016300005D1224800EB4620405D039001E0BDE863
:10164000FF8F4FF0000A17E0039800F0010020B16F
:1016500041463846FFF72CFE03E041463846FFF787
:1016600087FD03984010039008F1010000F0FF0887
:101670000AF1010000F0FF0ABAF1080FE4DB781C60
:10168000C7B20298381AA04204D1029F01980830CC
:10169000C0B20190DDF80480681CC5B2A542ACDB85
:1016A0000098411EC9B20091002898D100BFC6E73A
:1016B00046080020A60900207E0A00207E0C00209B
:1016C0002DE9F04F06468A4691461F46099C0025A3
:1016D0002CE0781B401EC1B20A20FFF7BDFEB9FB0B
:1016E000F0F00A21B0FBF1F201FB1208B8F1000F93
:1016F0000CD1A34604EBDB71491001FB0561C8B2B4
:10170000234630225146FFF7D9FE0DE0A34604EBF5
:10171000DB71491001FB0561C8B208F13001CAB2A2
:1017200023465146FFF7CAFE681CC5B2BD42D0DB56
:10173000BDE8F08FF0B506460F4614461D4613E08F
:1017400022782B4639463046FFF7B8FE284605EB8F
:10175000D07106EB6101CEB2C5F18000B04202DA71
:101760000026B81CC7B2641C2078202802DB207831
:101770007E28E5DDF0BD000038B50C48FEF7EAFE36
:101780000B49086008460068FEF768FD04460C2017
:1017900002232246002100905420FFF791FF4FF4CE
:1017A000967000F0CFFDFFF763FE38BD39080020CA
:1017B0003408002070B504460E4626B102211848B0
:1017C000FFF72BFC03E002211548FFF724FC102152
:1017D0001448FFF720FC002517E020211148FFF7EF
:1017E0001AFC04F0800020B180210E48FFF715FCA0
:1017F00003E080210B48FFF70EFC20210948FFF78A
:101800000CFC6006040E681CC5B2082DE5DB102137
:101810000448FFF702FC02210148FFF7FEFB70BD00
:10182000000C0140000801407047000029B1064A41
:10183000D2690243044BDA6104E0034AD26982436D
:10184000014BDA61704700000010024029B1064ADE
:1018500092690243044B9A6104E0034A926982430D
:10186000014B9A61704700000010024030B5002122
:101870000022002400232D4D6D6805F00C0121B1DC
:10188000042905D0082923D105E0294D056022E06F
:10189000274D05601FE0254D6D6805F47012234D3E
:1018A0006D6805F48034022505EB92421CB9214D88
:1018B000554305600BE01D4D6D6805F400351DB105
:1018C0001C4D5543056002E0194D5543056002E08B
:1018D000174D056000BF00BF144D6D6805F0F001A5
:1018E0000909154D6B5C0568DD4045600F4D6D685D
:1018F00005F4E061090A104D6B5C4568DD408560C8
:101900000A4D6D6805F46051C90A0B4D6B5C456862
:10191000DD40C560054D6D6805F44041890B074DFC
:101920006B5CC568B5FBF3F5056130BD0010024086
:1019300000127A0000093D0014000020240000205D
:10194000704710B500F002F810BD00000CB5002083
:10195000019000903348006840F4803031490860BD
:1019600000BF3048006800F4003000900198401C2F
:101970000190009818B90198B0F5A06FF1D12948ED
:10198000006800F4003010B10120009001E0002058
:1019900000900098012843D12348006840F01000CF
:1019A000214908600846006820F0030008600846E6
:1019B000006840F0020008601A4840681949486011
:1019C0000846406848600846406840F480604860C7
:1019D0000846406820F47C1048600846406840F49F
:1019E000E81048600846006840F08070086000BF5A
:1019F0000C48006800F000700028F9D009484068E1
:101A000020F00300074948600846406840F00200A3
:101A1000486000BF0348406800F00C000828F9D176
:101A20000CBD00000010024000200240042808D134
:101A30004FF0E021096941F004014FF0E02211610B
:101A400007E04FF0E021096921F004014FF0E022A6
:101A5000116170477047000030B51A4800681A4A93
:101A6000B0FBF2F1B1F1807F01D301201DE021F044
:101A70007F40401E4FF0E022506150170F22002897
:101A800007DA13071D0E114B00F00F04241F1D551C
:101A900003E013071C0E0E4B1C5400BF00204FF038
:101AA000E022906107201061002008B100BFFEE72E
:101AB0004FF0E020006920F001004FF0E0210861C4
:101AC00030BD00000000002040420F0018ED00E093
:101AD00000E400E010B51348006840F0010011492F
:101AE000086008464068104908400E4948600846AA
:101AF00000680E4908400B4908600846006820F459
:101B0000802008600846406820F4FE0048604FF4DA
:101B10001F008860FFF715FF4FF000600449086060
:101B200010BD0000001002400000FFF8FFFFF6FEAD
:101B300008ED00E021B1028842F00102028004E0D9
:101B400002884FF6FE731A400280704700B587B0D6
:101B500001210220FFF76AFEC720ADF8140041F60C
:101B60001F40ADF810000020ADF81600ADF81200CF
:101B700004A90D4800F072F86020ADF800000120C3
:101B8000ADF802000020ADF808006946064800F0F4
:101B90000DF80821044800F055F801210248FFF72C
:101BA000C9FF07B000BD00000004004070B500246C
:101BB00000220023058C4FF6FE7635400584028C0A
:101BC0008388048B4FF68F752C40B51E2C400D88F2
:101BD0002C43751E2A400D892A434D882A43144DF3
:101BE000A8420BD0134DA84208D0134DA84205D0EF
:101BF000124DA84202D0124DA84213D14FF6F775EC
:101C00002A404D892A434FF6FB752A408D882A4386
:101C10004FF6FF652B404FF6FF552B408D892B4328
:101C2000CD892B4383800483CD888586028470BD53
:101C3000002C0140003401400040014000440140BC
:101C4000004801400A460021018B4FF6F773194006
:101C5000114301837047818670470000002202888B
:101C60001D4B98420ED01D4B98420BD0B0F1804FC7
:101C700008D01B4B984205D01A4B984202D01A4B01
:101C8000984204D14FF68F731A404B881A43174B72
:101C9000984207D0164B984204D04FF6FF431A40A3
:101CA000CB881A4302808B8883850B8803850A4B77
:101CB00098420BD0094B984208D00E4B984205D061
:101CC0000D4B984202D00D4B984201D10B7A0386FE
:101CD0000123838270470000002C01400034014042
:101CE0000004004000080040000C004000100040CC
:101CF0000014004000400140004401400048014001
:101D000038B540F22551D74800F024FA00287DD09C
:101D1000D44800F0DBFAC4B22146D24800F0DBFA26
:101D2000A4F13000072872D2DFE800F004407F7190
:101D3000CFFDFC00FEF780FDFFF702FA0C23CAA2DC
:101D400010215420FFF7F6FC0C23C8A2002102202A
:101D5000FFF7F0FC0C23C9A210210220FFF7EAFCD8
:101D60000C23C8A220210220FFF7E4FC0C23C7A209
:101D700030210220FFF7DEFC0C23C7A200216420E3
:101D8000FFF7D8FC012211466C20FFF745FA0C231F
:101D9000C2A230215420FFF7CDFC0C23C0A2202189
:101DA0005420FFF7C7FCFFF763FB58E1FEF736FD51
:101DB000D221BD48FFF74FFFFFF7C2F90C200123E6
:101DC0000322102100905420FFF77AFC0C23A7A2D5
:101DD00000210220FFF7AEFC0C23A8A21021022054
:101DE000FFF7A8FC0C23A7A220210220FFF7A2FCEA
:101DF0000C23A6A230210220FFF79CFC0C23A6A2F4
:101E000000216420FFF796FC012201E028E125E192
:101E100011466C20FFF700FA0C23A0A230215420B9
:101E2000FFF788FCFFF724FB19E1FFF789F90C2382
:101E30008EA200210220FFF77DFC0C238FA210212F
:101E40000220FFF777FC0C238EA220210220FFF74F
:101E500071FC0C238DA230210220FFF76BFC0C23B8
:101E60008DA200216420FFF765FC012211466C2041
:101E7000FFF7D2F90C2389A230215420FFF75AFC36
:101E8000FFF7F6FA00BF774800F020FAC4B2FEF779
:101E900071FF332C18D04FF400718448FFF7E2F83B
:101EA00090B94FF480618148FFF7DCF860B94FF4D6
:101EB00000617E48FFF7D6F830B94FF480517B4877
:101EC000FFF7D0F80028DED0C9E0FEF7A7FC4621D6
:101ED0007548FFF7C0FEFFF733F90C2363A200211A
:101EE0000220FFF727FC0C2364A210210220FFF739
:101EF00021FC0C2363A220210220FFF71BFC0C23F2
:101F000062A230210220FFF715FC0C2362A20021FF
:101F10006420FFF70FFC012211466C20FFF77CF9CB
:101F20000C2301E058E015E05CA230215420FFF7BB
:101F300001FC0C235AA220215420FFF7FBFB0C20AC
:101F400001231A46102100905420FFF7B9FBFFF738
:101F50008FFA84E0FEF762FC8C215348FFF77BFE8A
:101F6000FFF7EEF80C2341A200210220FFF7E2FB6D
:101F70000C2342A210210220FFF7DCFB0C2341A21C
:101F800020210220FFF7D6FB0C2340A230210220A3
:101F9000FFF7D0FB0C2340A200216420FFF7CAFB0F
:101FA000012211466C20FFF737F90C233BA23021A8
:101FB0005420FFF7BFFB0C2339A220215420FFF748
:101FC000B9FB0C2001230222102100905420FFF7BE
:101FD00077FBFFF74DFA42E0FEF720FCD2213248B2
:101FE000FFF739FEFFF7ACF80C2320A200210220F6
:101FF000FFF7A0FB0C2321A210210220FFF79AFB80
:102000000C2320A220210220FFF794FB0C231FA207
:1020100030210220FFF78EFB0C231FA20021642039
:10202000FFF788FB012211466C20FFF7F5F80C231F
:102030001AA230215420FFF77DFB0C2318A2202187
:102040005420FFF777FB0C2001230322102100907E
:102050005420FFF735FBFFF70BFA00E000BF00BF8D
:1020600038BD0000004400404F46460054656D7086
:10207000657261747572653A0000000046616E3ADF
:10208000000000004D6F64653A0000004453313891
:102090004232303A00000000430000004F6B000065
:1020A00048756D616E0000000004004000080140AA
:1020B00021B1828942F40052828104E082894DF686
:1020C000FF731A408281704700B585B0012104205A
:1020D000FFF7BCFB01214804FFF7A8FB0420ADF883
:1020E000100018208DF8130003208DF8120004A9A9
:1020F0001648FEF7B3FE0820ADF8100004208DF856
:10210000130004A91148FEF7A9FE4FF4E130009036
:102110000020ADF80400ADF80600ADF80800ADF8F9
:102120000C000C20ADF80A006946094800F062F87E
:10213000FEF7B1FF012240F22551054800F034F8C6
:1021400001210348FFF7B4FF05B000BD00080140BE
:102150000044004070B50246002400230025002002
:1021600040F66A16B14200D100BFC1F3421501F03A
:102170001F03012606FA03F3012D02D1968933408D
:1021800006E0022D02D1168A334001E0968A3340E0
:102190000C12012606FA04F41688344013B10CB16F
:1021A000012000E0002070BDF0B5034600240026A9
:1021B0000025002040F66A17B94200D100BF18463A
:1021C000C1F3421401F01F06012707FA06F5012C9E
:1021D00001D10C3004E0022C01D1103000E01430A9
:1021E0001AB107682F43076002E00768AF43076032
:1021F000F0BD00002DE9F04786B005460E460024EC
:10220000A24600BFA1460027B08900B100BF2F46FB
:102210002C8A4CF6FF700440F08804432C82AC8971
:102220004EF6F3100440B0883189084371890843A1
:102230000443AC81AC8A4FF6FF400440B0890443AC
:10224000AC8201A8FFF712FB1F48874202D1DDF8DC
:1022500010A001E0DDF80CA0A88900F4004040B116
:102260000AEBCA0000EB0A1031684900B0FBF1F834
:1022700007E00AEBCA0000EB0A1031688900B0FBE6
:10228000F1F86420B8FBF0F004012009642101FB9F
:102290001089A88900F4004040B1322000EBC90049
:1022A000B0FBF1F000F00700044308E0322000EB3F
:1022B00009106421B0FBF1F000F00F0004432C8101
:1022C00006B0BDE8F087000000380140014688886C
:1022D000C0F308007047C1F308028280704700BF56
:1022E000FEE702E008C8121F08C1002AFAD17047B1
:1022F0007047002001E001C1121F002AFBD1704786
:1023000010B56FF00400FFF791FB0A4800680A4916
:10231000B0FBF1F0094908700846007800EB400175
:10232000C1EBC0104FF6FF7101EAC00004490880FC
:1023300010BD00000000002000127A0042080020BA
:10234000440800200146114A12884A434FF0E02316
:102350005A6100229A611A46126942F001021A611A
:1023600000BF4FF0E022106900F001021AB100F442
:102370008032002AF5D04FF0E022126922F00102EB
:102380004FF0E0231A6100229A6170474408002050
:1023900010B5FFF761FBFFF7B3FFFFF795FEFEF700
:1023A00037FAFEF73FFEFEF723F9FEF79FFF002006
:1023B000FEF70EFF0020FEF719FFFFF759F810BDDA
:1023C000FFF7E6FF0C231DA200210220FFF7B2F960
:1023D0000C231EA210210220FFF7ACF90C231DA232
:1023E00020210220FFF7A6F90C231CA23021022095
:1023F000FFF7A0F90C231CA200216420FFF79AF933
:10240000012211466C20FEF707FF0C2317A2302192
:102410005420FFF78FF90C2315A210215420FFF749
:1024200089F9FFF725F81348FEF773F9FEF704FA68
:1024300003E0FEF70FFAFFF79FF9FAE754656D70B6
:10244000657261747572653A0000000046616E3A0B
:10245000000000004D6F64653A00000044533138BD
:102460004232303A00000000430000004F6B000091
:102470004F46460039080020000000000000000020
:1024800000000000000000003F40000000000000CD
:1024900000003000400030004000000009000BC088
:1024A0003D000BC03D00090018C024407FE02240E1
:1024B00031800000180024C01B000D8032400180D4
:1024C00003801C4027401C80074000401000600033
:1024D00000000000000000000000000000001F805D
:1024E000204040200000402020401F8000000000CD
:1024F000090006001F800600090000000400040017
:102500003F80040004000000001000600000000094
:1025100000000000040004000400040004000000A7
:10252000000000400000000000000000002001C08A
:1025300006003800400000001F802040204020405E
:102540001F800000000010403FC00040000000005D
:1025500018C0214022402440184000001080204034
:10256000244024401B80000002000D0011003FC0E9
:10257000014000003C80244024402440238000008F
:102580001F8024402440344003800000300020009D
:1025900027C03800200000001B8024402440244035
:1025A0001B8000001C0022C0224022401F8000002F
:1025B00000000000084000000000000000000000D3
:1025C0000460000000000000000004000A00110088
:1025D00020804040090009000900090009000000AE
:1025E00000004040208011000A0004001800200074
:1025F00023402400180000001F802040274029406D
:102600001F400000004007C039000F0001C000401B
:1026100020403FC0244024401B8000001F802040F9
:10262000204020403080000020403FC0204020401B
:102630001F80000020403FC024402E4030C00000DA
:1026400020403FC024402E00300000000F001080CA
:10265000204022403380020020403FC0040004009C
:102660003FC02040204020403FC02040204000008C
:102670000060202020203FC02000200020403FC0DC
:1026800024400B0030C0204020403FC0204000408C
:10269000004000C03FC03C0003C03C003FC0000001
:1026A00020403FC00C4023003FC020001F8020403E
:1026B000204020401F80000020403FC024402400D4
:1026C000180000001F802140214020E01FA00000D2
:1026D00020403FC02440260019C0004018C02440BC
:1026E0002440224031800000300020403FC0204084
:1026F0003000000020003F80004000403F8020006C
:1027000020003E0001C0070038002000380007C04C
:102710003C0007C038000000204039C0060039C026
:10272000204000002000384007C038402000000052
:10273000304021C02640384020C00000000000008A
:102740007FE0402040200000000070000C0003806B
:10275000004000000000402040207FE0000000001A
:1027600000002000400020000000000000100010C9
:1027700000100010001000100000000040000000D9
:1027800000000000000002800540054003C000403A
:1027900020003FC00440044003800000000003808C
:1027A0000440044006400000000003800440244030
:1027B0003FC000400000038005400540034000008A
:1027C000000004401FC0244024402000000002E01C
:1027D000055005500650042020403FC0044004002E
:1027E00003C000400000044027C00040000000007B
:1027F00000100010041027E00000000020403FC03F
:102800000140070004C00440204020403FC0004079
:102810000040000007C0040007C0040003C000001F
:10282000044007C00440040003C0004000000380CF
:102830000440044003800000041007F004500440EA
:1028400003800000000003800440045007F00010E3
:10285000044007C0024004000400000000000640DD
:102860000540054004C00000000004001F80044033
:1028700000400000040007800040044007C0004002
:102880000400070004C0018006000400060001C027
:10289000070001C006000000044006C0010006C099
:1028A000044000000410071004E00180060004004A
:1028B0000000044005C00640044000000000000085
:1028C00004007BE040200000000000000000FFF05A
:1028D00000000000000040207BE004000000000039
:1028E0004000800040002000200040000000000068
:1028F00000000000000000000000000000000000D8
:1029000000001FCC000C00000000000000000800C8
:10291000300060000800300060000000022003FC6E
:102920001E20022003FC1E200220000000000E18C2
:1029300011043FFF10840C78000000000F00108489
:102940000F3800C0077818840078000000780F84E2
:1029500010C411240E9800E40084000808006800E8
:1029600070000000000000000000000000000000F7
:10297000000007E018182004400200000000400298
:102980002004181807E00000000000000240024088
:1029900001800FF0018002400240000000800080B2
:1029A00000800FF800800080008000000001000D12
:1029B000000E000000000000000000000000008089
:1029C0000080008000800080008000800000000CFB
:1029D000000C0000000000000000000000000006E5
:1029E000001800600180060018002000000007F0B9
:1029F000080810041004080807F00000000008048C
:102A000008041FFC000400040000000000000E0C7D
:102A100010141024104411840E0C000000000C1837
:102A200010041104110412880C700000000000E072
:102A30000320042408241FFC0024000000001F9829
:102A4000108411041104108810700000000007F0B9
:102A500008881104110418880070000000001C0090
:102A6000100010FC13001C001000000000000E38C5
:102A700011441084108411440E3800000000070037
:102A8000088C10441044088807F000000000000083
:102A90000000030C030C0000000000000000000018
:102AA000000101060000000000000000000000809E
:102AB0000140022004100808100400000220022037
:102AC0000220022002200220022000000000100448
:102AD00008080410022001400080000000000E00E1
:102AE0001200100C106C10800F00000003E00C1896
:102AF00013E4142417C4082807D000000004003C85
:102B000003C41C40074000E4001C000410041FFC28
:102B10001104110411040E880070000003E00C1869
:102B200010041004100410081C10000010041FFCF6
:102B3000100410041004080807F0000010041FFC23
:102B40001104110417C410040818000010041FFC1D
:102B50001104110017C010000800000003E00C1859
:102B60001004100410441C780040000010041FFCE6
:102B700010840080008010841FFC100400001004EA
:102B800010041FFC100410040000000000030001EA
:102B9000100110011FFE10001000000010041FFCA7
:102BA000110403801464181C1004000010041FFC9E
:102BB0001004000400040004000C000010041FFCBA
:102BC0001F0000FC1F001FFC1004000010041FFC6D
:102BD0000C04030000E010181FFC100007F00808A8
:102BE000100410041004080807F0000010041FFC73
:102BF00010841080108010800F00000007F008186B
:102C000010241024101C080A07F2000010041FFCF6
:102C10001104110011C011300E0C000400000E1C34
:102C200011041084108410441C3800001800100097
:102C300010041FFC100410001800000010001FF802
:102C400010040004000410041FF8100010001E00FF
:102C500011E0001C007013801C0010001FC0103C0D
:102C600000E01F0000E0103C1FC000001004180C22
:102C7000163401C001C01634180C100410001C00DA
:102C8000130400FC13041C00100000000804101CB6
:102C90001064108413041C041018000000000000CD
:102CA00000007FFE400240024002000000003000B1
:102CB0000C0003800060001C0003000000004002C4
:102CC000400240027FFE0000000000000000000003
:102CD00020004000400040002000000000010001F2
:102CE000000100010001000100010001000040009E
:102CF00040002000000000000000000000000098DC
:102D0000012401440144014400FC000410001FFCA4
:102D100000880104010400880070000000000070B9
:102D20000088010401040104008800000000007014
:102D300000880104010411081FFC0004000000F8D1
:102D4000014401440144014400C8000000000104A2
:102D500001040FFC1104110411001800000000D63A
:102D600001290129012901C90106000010041FFCE5
:102D7000008401000100010400FC000400000104C3
:102D8000190419FC00040004000000000000000306
:102D900000010101190119FE0000000010041FFCD0
:102DA0000024004001B4010C0104000000001004E4
:102DB00010041FFC0004000400000000010401FCDA
:102DC0000104010001FC0104010000FC010401FCFC
:102DD000008401000100010400FC0004000000F870
:102DE000010401040104010400F80000010101FFD5
:102DF00000850104010400880070000000000070DC
:102E0000008801040104010501FF0001010401041F
:102E100001FC00840104010001800000000000CCDE
:102E20000124012401240124019800000000010074
:102E3000010007F80104010400000000010001F88E
:102E4000000400040004010801FC000401000180EA
:102E50000170000C001001600180010001F0010C04
:102E6000003001C00030010C01F00100000001043D
:102E7000018C00740170018C0104000001010181CA
:102E80000171000E00180160018001000000018442
:102E9000010C013401440184010C00000000000019
:102EA0000000000001003EFC400240020000000063
:102EB00000000000FFFF00000000000000004002D2
:102EC00040023EFC01000000000000000000600025
:102ED0008000800040004000200020000000000032
:102EE00000000000000000000000000000000000E2
:102EF00000000000000000000000000000000000D2
:102F00000000000000000000000000000000000FB2
:102F100080380FFE380F80380000000000000000ED
:102F2000000000000000000000000100000600009A
:102F30000C00003800003100000600000C000038D2
:102F40000000300000000000000000006180006709
:102F5000F807F98000618000618000618000618075
:102F60000067F807F98000618000000000000000A1
:102F7000000001C0E003E0F00630080418081FFF5D
:102F8000FE040E080787F00381E000000000000047
:102F900001F000060C00040408060C7001F9C000E2
:102FA0000E00003BE000EC18070808040C180003B2
:102FB000E00000000001E00007F003F818041C081E
:102FC00004170807E1D003C0E00023B0003C08006C
:102FD0002008000010000000000000010000310087
:102FE000003200001C000000000000000000000093
:102FF00000000000000000000000000000000000D1
:103000000000000000000000000000007F0001FF41
:10301000C00780F00C00181000042000020000001F
:103020000000002000021000040C00180780F001CE
:10303000FFC0007F00000000000000000000000052
:103040000000000000000000420000660000660072
:10305000003C0000180003FFC0001800003C000006
:103060006600006600004200000000000800000842
:103070000000080000080000080001FFC000080070
:103080000008000008000008000008000000000020
:10309000000100003100003200001C0000000000B0
:1030A0000000000000000000000000000000000020
:1030B00000000000080000080000080000080000F0
:1030C00008000008000008000008000008000008D0
:1030D0000000000000000000000000003800003880
:1030E00000003800000000000000000000000000A8
:1030F00000000000000000000000000000060000CA
:103100001C000070000180000E0000380000C000AC
:103110000700001C0000300000000000000000005C
:103120007F8001FFE003807006001804000804009F
:103130000806001803807001FFE0007F8000000097
:103140000000000000000100080100080100080361
:10315000FFF807FFF8000008000008000008000062
:103160000000000000000001C03802C058040098B0
:10317000040118040218040418061C1803F81801A6
:10318000E0F800000000000000000001C0E003C003
:10319000F004000804080804080806180803F418D6
:1031A00001E7F00001E00000000000000000000066
:1031B0000300000D00001100006100008108030100
:1031C0000807FFF80FFFF8000108000108000000E1
:1031D0000000000000E007FCD00608080610080602
:1031E0001008061008061838060FF00607C0000081
:1031F00000000000000000003F8001FFE003843079
:103200000208180410080410080410080718100316
:103210000FF00007C000000000000000000003C025
:10322000000700000600000600F80607F806180070
:1032300006E000070000060000000000000000019A
:10324000E1E003F7F0063410041808041808040C31
:1032500008040C0806161803F3F001C1E000000092
:1032600000000000F80003FC3003063804020804E4
:1032700002080402080404100308F001FFC0007FE4
:10328000000000000000000000000000000000003E
:103290000000000070380070380070380000000036
:1032A000000000000000000000000000000000001E
:1032B0000000000000000000301A00301C00000078
:1032C00000000000000000000000000000000000FE
:1032D00000000008000014000022000041000080EF
:1032E00080010040020020040010080008000000D7
:1032F000000000002100002100002100002100004A
:1033000021000021000021000021000021000021F7
:103310000000000000000000000008000804001089
:1033200002002001004000808000410000220000D7
:10333000140000080000000000000003C00004C0EA
:1033400000040000080038080F380808380810008A
:103350000C300007E00003C0000000000000000087
:103360003F8000FFE0038070020F1006708804C0E9
:1033700088048308047F8802C09003012000FE4077
:103380000000080000180001F8003E0801C2000714
:10339000020007E20000FE00001FC80001F8000064
:1033A0003800000804000807FFF807FFF8040808C1
:1033B00004080804080804080806180803F418019B
:1033C000E7F00001E0000000000000003F8001FF86
:1033D000E0038070020018040008040008040008DC
:1033E0000400100600200780C00000000400080749
:1033F000FFF807FFF80400080400080400080400B0
:103400001802001003807001FFE0007F80000000C0
:1034100004000807FFF807FFF80408080408080478
:103420000808040808043E08040008060018010003
:103430006000000004000807FFF807FFF804080810
:10344000040800040800040800043E00060000060A
:103450000000018000000000000000003F8001FF2C
:10346000E003807006001804000804020804020843
:103470000203F00783F000020000020004000807C6
:10348000FFF807FFF804080800080000080000081B
:103490000000080004080807FFF807FFF804000808
:1034A00000000000000004000804000804000807F1
:1034B000FFF807FFF80400080400080400080000F3
:1034C00000000000000000000006000007000001EE
:1034D00004000104000104000307FFFE07FFFC04D1
:1034E000000004000004000004000807FFF807FFC4
:1034F000F8040C08001800003E0004C7800503C84B
:103500000600F8040038040018000008040008074A
:10351000FFF807FFF804000800000800000800009A
:10352000080000080000080000180000600000000B
:1035300004000807FFF807800807FC00007FC000B0
:1035400003F80007C000780007800807FFF807FFAE
:10355000F804000804000807FFF807000803C0008B
:1035600000E000003800001E000007000001C00459
:1035700000F007FFF8040000000000007F8001FF5A
:10358000E003807006001804000804000806001814
:1035900003003001FFE0007F800000000400080706
:1035A000FFF807FFF80404080404000404000404FE
:1035B00000040400060C0003F80001F00000000005
:1035C000000000007F8001FFE00380700600880497
:1035D00000880400C806003C03003E01FFE6007FAF
:1035E0008400000004000807FFF807FFF80408083B
:1035F000040800040C00040F00040BC00610F003C4
:10360000F03801E00800000800000001E0F803F0D5
:1036100030063010041808041808040C08040C08BC
:103620000206180207F00781E00000000180000692
:10363000000004000004000004000807FFF807FF72
:10364000F8040008040000040000060000018000E7
:1036500004000007FFE007FFF00400180000080066
:10366000000800000800000800000804001007FF20
:10367000E004000004000006000007E00007FE0070
:10368000041FE00001F80000380001E0043E0007DC
:10369000C00006000004000004000007E00007FF6F
:1036A000C0041FF80007C007F80007FF80043FF8B8
:1036B0000007C004F8000700000400000000000438
:1036C000000806001807C07805F1C8003E00001F7A
:1036D000800463E80780F806001804000800000072
:1036E00004000006000007800007E008047C0800D2
:1036F0001FF80007F800180804E00807000006009B
:10370000000400000000000100080600380400F872
:103710000403E8040F08047C0805F00807C0080744
:10372000001804006000000000000000000000001D
:10373000000000000000003FFFFE20000220000209
:103740002000022000022000020000000000000013
:10375000000008000007000000C00000380000065C
:10376000000001C000003000000E00000100000059
:1037700000000000000020000220000220000220C3
:1037800000022000023FFFFE0000000000000000D9
:103790000000000000000000000000000008000021
:1037A0001000003000002000003000001000000871
:1037B0000000000000000000000001000001000007
:1037C00001000001000001000001000001000001F3
:1037D00000000100000100000100000100000000E5
:1037E0000000000000200000200000100000100079
:1037F00000000000000000000000000000000000C9
:103800000000000000F00019F8001B18002208005A
:103810002608002408002410003FF8001FF80000CC
:103820000800001800000004000007FFF80FFFF078
:1038300000181800100800200800200800301800A8
:103840001FF0000FC00000000000000007C0001FB4
:10385000F0001830002008002008002008003C0874
:10386000001C1000006000000000000000000000CC
:1038700007C0001FF00038180020080020080020B2
:103880000804101007FFF80FFFF000001000000000
:103890000000000000000007C0001FF00012300010
:1038A0002218002208002208003208001E10000E14
:1038B0002000000000000000200000200800200878
:1038C00001FFF803FFF80620080420080420080779
:1038D000200003000000000000000000000E000EA9
:1038E0006E001FF30031B10020B10020B100319112
:1038F000001F13002E1E00200E00300000000004E8
:10390000000807FFF80FFFF8001008002000002053
:1039100000002008003FF8001FF800000800000029
:103920000000000000000020080020080020080619
:103930003FF8063FF80000080000080000080000FB
:103940000000000000000000000000000300000371
:10395000002001002001002003063FFE063FFC007E
:10396000000000000000000000000004000807FF45
:10397000F80FFFF8000188000300002FC00038F89E
:1039800000203800200800000800000000000000AF
:10399000000004000804000804000807FFF80FFFF7
:1039A000F800000800000800000800000000000007
:1039B000002008003FF8003FF80010080020000039
:1039C0003FF8003FF8001008002000003FF8003FDB
:1039D000F8000008000000002008003FF8003FF851
:1039E000001008001000002000002008003FF80030
:1039F0001FF80000080000000000000007C0000FD2
:103A0000F0001830003008002008002008003008BE
:103A1000001830000FF00007C00000000000000098
:103A20002001003FFF003FFF00101100200900208F
:103A300008002008003038001FF0000FC000000010
:103A40000000000007C0001FF00038180020080028
:103A50002008002009001011001FFF003FFF000098
:103A600001000000002008002008002008003FF8A6
:103A7000003FF8000808001008002008002000009F
:103A80003000003000000000000000000000000CCA
:103A900078001E1800330800230800210800218840
:103AA0000021980030F000386000000000000000A5
:103AB000200000200000200000FFF003FFF800209D
:103AC000080020080020080000300000000000006E
:103AD000000000002000003FF0007FF80000180008
:103AE0000008000008002010003FF8007FF00000F0
:103AF00010000000000000002000003000003C002A
:103B0000003F800023F00000780000700023800058
:103B10003C00003000002000002000003C00003F7E
:103B2000E00023F80000E0002700003E00003FE036
:103B30000021F80001E0003E00002000000000002D
:103B40002008002008003838003E68002780000365
:103B5000C8002CF8003838002018002008000000A9
:103B6000000000002000003003003C01003F830003
:103B700023EC000070002380003C000020000020A7
:103B8000000000000000000000000038080020389D
:103B90000020F80023E8002F88003E0800380800C5
:103BA000201800007000000000000000000000006D
:103BB000000000000000000008000014001FF7FCD7
:103BC000300006200002000000000000000000009D
:103BD0000000000000000000000000000000FFFFE7
:103BE000FF000000000000000000000000000000D6
:103BF0000000000000002000023000061FF7FC005B
:103C00001400000800000000000000000000000098
:103C100000000000000000180000600000400000EC
:103C20004000002000001000000800000400000414
:103C300000000C0000100000583C000800000020AC
:103C4000801C00004604000830400008801C002052
:103C500080080000F22200081184A24A04680901C9
:103C6000020304060708090C69101502040608106F
:103C70000A03050911FF118905C312E012F072F859
:103C8000073D4428FF11AA44700B830138448292F7
:103C90009274018328087C44FF017D7D7D044905E1
:103CA0005C7D01FFA1990279B5890B0136694199C3
:103CB00049FA0101011D38083F3F0303F3131101C5
:103CC0001E01F1116181312D816111F1393B4141B9
:103CD000072C01C1211EAB21C11439013936073827
:103CE000D33303033F3F23E0E06A7FA81A7FBF4C32
:103CF0000618060A213640407F40401C1F20400124
:103D0000AB201F14113A600E6C300C034601361CB8
:103D10000707060178090404048444444484071C0A
:103D20000484C405790E09110A7911294003410759
:103D3000072610181412112E0F1010100F0F331F1A
:103D40001026081012120D22186B0D120A5929594B
:103D50000701605A8001013D20087F030C300C03ED
:103D60007F2538545458257C04047805223C404073
:103D70007C17FFAAAAAA28080A2CFF681E26494910
:103D80004932101D020408100F100A03050911FF23
:103D9000118905C312E012F072F8073D4428FF11A3
:103DA000AA44700B830138448292927401831E7C72
:103DB00044FF017D01990559BB9A0102818A010BDB
:103DC000013669419949FA010101204BF8080111B6
:103DD00035F818608035806018F82B202006312BCC
:103DE000E0101EAB10E014613937043E8868186A91
:103DF0007FA71A7FBE4C0618060A114640407F4036
:103E0000401C1F204001AB201F141162603A602F3C
:103E100001441E40202020C0ED190729EA2A400550
:103E2000115A600E8918792959070149260C0A0A86
:103E3000090C360F0808080F2C080F08151D080973
:103E4000090E0719181C09090918190A59295907CF
:103E500001605A8001013D20087F030C300C037F74
:103E60002538545458257C04047805223C40407C75
:103E700017FFAAAAAA28080A2CFF681E2649494942
:103E800032101D020408100F310219013808020215
:103E9000E22222FE22042CE2020274380A48444341
:103EA000404040434444771A200129091EFF402026
:103EB00010080F2D60201010101A3F241A40C9114D
:103EC000293D193C19044A3EB4200C41211101013D
:103ED000030D112141F110101010F196909010086F
:103EE000F744C444444404381080601F40807F0479
:103EF0008544340F344484845F29625908111B803F
:103F00008068130C031008030C10204080801C40B4
:103F10003011401A91041698141350302A04013EAF
:103F200044847E06050A11180901011DD5555F5507
:103F300055041DD51D0101701F1017151515FD0421
:103F40001A170C21158060F807100A109854931066
:103F5000105498301A01A111100B808944462B127D
:103F60002A4680813809100C0555D555057F061362
:103F7000140C18092022120AFF0A1220061A06073A
:103F800001444BC080014BFC84080336C0C03CFF99
:103F90007F40014AFF07043E40FF7F034A7F7003D2
:103FA00073FCF86CFFFE02018BFFFF0B0268036CD1
:103FB0001F1F04017BFFFF0B02741F038C7F3F0751
:103FC000FFF8F8F0F0702001E60214801AFF0109F2
:103FD000122C09132D01FF01C0EDFFFFFE06011A8F
:103FE000FF01F915391603FF070201D10C12FFFF7B
:103FF000FF1409101509151601FF01C1EDFFFFFFA0
:1040000018011914091015391601FF01D204120202
:1040100001011AFF01011209122A01FF01D71AFF3B
:104020000101FF01FD05FF1F1F0F0F01E20000004E
:04000005080000ED02
:00000001FF
